:020000040800F2
:1000000098090020B9050008C1050008C3050008CB
:10001000C5050008C7050008C90500080000000064
:10002000000000000000000000000000CB050008F8
:10003000CD05000800000000CF050008CD01000834
:10004000D3050008D3050008D3050008D305000830
:10005000D3050008D3050008D3050008D305000820
:10006000D3050008D3050008D3050008D305000810
:10007000D3050008D3050008D3050008D305000800
:10008000D3050008D3050008D3050008D3050008F0
:10009000D3050008D3050008D3050008D3050008E0
:1000A000D3050008D3050008D3050008D3050008D0
:1000B000D3050008D3050008D3050008D3050008C0
:1000C000D3050008D3050008D3050008D3050008B0
:1000D000D3050008D3050008D3050008D3050008A0
:1000E000D3050008D3050008D3050008D305000890
:1000F000D3050008D3050008D3050008D305000880
:10010000D3050008D3050008D3050008D30500086F
:10011000D3050008D3050008D3050008D30500085F
:10012000D3050008D3050008D3050008D30500084F
:1001300000F002F800F03AF80AA090E8000C8244BF
:100140008344AAF10107DA4501D100F02FF8AFF29C
:10015000090EBAE80F0013F0010F18BFFB1A43F0A5
:10016000010318476006000080060000103A24BF13
:1001700078C878C1FAD8520724BF30C830C144BF0C
:1001800004680C607047000000230024002500264E
:10019000103A28BF78C1FBD8520728BF30C148BFEA
:1001A0000B6070471FB51FBD10B510BD00F0D3FA2E
:1001B0001146FFF7F7FF00F03AF800F0F1FA03B448
:1001C000FFF7F2FF03BC00F0F5FA000010B532486B
:1001D00000F0BDF9304800F0A4F92F48BDE8104008
:1001E000103000F09EB92D48C16841F00401C16093
:1001F000816941F004018161C16821F00401C1609D
:1002000070472748016821F440610160016841F4AA
:1002100040710160704722480C30016881F0040190
:10022000016070471C480021103000F046B9FFF70C
:10023000DAFFFFF7E6FF4FF4E13000F037F800F0A7
:10024000ABF8154800F0B6F81348103000F0B2F8DB
:1002500080230022AFF241010F48103000F004F972
:10026000042000F0ACF802464FF4A063AFF24B015B
:100270000948103000F0F8F84FF0E02009494161DA
:10028000094AF021117000218161072101610248B2
:10029000103000F05CF9FAE7140000200010024072
:1002A00000080140A14A040023ED00E0354910B5E3
:1002B0004A6942F001024A61334A536843F4704389
:1002C0005360324BD36400235364536C41F2900467
:1002D000234353648A6942F480428A61CA6842F4C3
:1002E0008042CA60CA6822F48042CA6028490A680B
:1002F00022F0C0020A600A6842F080020A600A68BE
:1003000042F030020A602349B1FBF0F01F49091D99
:100310000880081D018842F208021143018010BDC7
:1003200030B51A4A194B083242F208051B1F1488CF
:1003300035EA040102D119880906F8D51349088065
:1003400030BD114A936C13B1536CDB07FAD1536C77
:1003500023F00103536410659164506C40F0010078
:1003600050640A481030018841F0800101807047D4
:10037000002201E0401C521C01780029FAD191B200
:10038000801ADEE7001002400000024004380140FD
:100390000408014000A24A048548002100F50072CB
:1003A00001E000F8011B9042FBD38248FC2202804E
:1003B00041807047002101608160416070470246C2
:1003C00000207C4910B5D21C22F003020B464C8859
:1003D00084B90C8894420DD3A3B2081D9C1A042C36
:1003E00005D38B18241F9C800024DC800A80012206
:1003F0004A8010BD31F8044B21445C1A04F5807426
:10040000082CE4D210BD6B4930B5091D884220D3B9
:10041000F83188421DD8001FFC390A4600230C46DB
:1004200081420CD14B808A4214D0558895B91088EE
:1004300009880844001D1080104601460AE08242E7
:1004400008D14888002804D1108809880844001D74
:10045000108030BD0A4631F8045B2944651A05F561
:100460008075082DDCD230BDF0B5514D00242E68CA
:1004700036B1641CE4B21035202CF8D30020F0BD56
:100480004C4D2D1DAA4202D3F835AA4200D90022B4
:10049000474E45681DB106EB0417EF6002E006EB1E
:1004A0000415056006EB04144460C4E900122381BE
:1004B00063810020E0600120F0BDF0B504680F46C4
:1004C000054626464FF0000C05E02068B84205D0EE
:1004D00027B12646E468002CF7D1F0BD01206873EF
:1004E000A868A04208D1287B30B14FF0FF302081AE
:1004F0002646002FF1D1EDE76068FFF784FFC4F8CE
:1005000000C02868A04206D1E6682E60002EF0D117
:10051000C5F804C0EDE76868A042EAD1C6F80CC08F
:10052000E7E730B5054604680EE0B4F90800002896
:1005300004DA28462168FFF7C0FF04E0B4F90A1086
:1005400009B1491E6181E468002CEED130BD70B55F
:1005500001680446002919D00123627B0025A068A8
:1005600010B1C068A06000E0A16023734AB9A06820
:10057000D8B1B0F90860002E17DB06680EB14689C5
:100580002EB12573A0680028E9D1257370BD0189BB
:1005900011B94FF0FF310181A068D0E90012104677
:1005A0008847A06801894181EFE7A560EDE7000079
:1005B00034000020340200200948804709480047E1
:1005C000FEE7FEE7FEE7FEE7FEE7FEE7FEE7FEE703
:1005D000FEE7FEE704480549054A064B7047000060
:1005E00099060008310100089803002098090020AE
:1005F00098050020980500200CB500224C48009278
:100600000192016841F4803101604FF4A0630168F8
:1006100001F4003101910099491C0091019911B92F
:1006200000999942F3D10168890333D501210191E1
:1006300040490A6842F010020A600A6822F0030288
:100640000A600A6842F002020A604168416041683B
:100650004160416841F480614160416821F47C114E
:100660004160416841F4E8114160016841F08071E6
:10067000016001688901FCD5416821F003014160F6
:10068000416841F0020141604168C1F381010229E2
:10069000FAD10CBD01920CBD254810B5016841F09E
:1006A000010101604168244A114041600168234A08
:1006B00011400160016821F480210160416821F44A
:1006C000FE0141604FF41F018160FFF795FF1C4957
:1006D0004FF00060086010BD154A10B55068194B06
:1006E00010F00C01184803D0042901D0082901D0CA
:1006F000036012E05168536801F470114FF0020476
:1007000013F4803F04EB914102D053689B0301D561
:100710000E4B00E00B4B5943016051680A4AC1F38C
:100720000311121D515C0268CA40026010BD000036
:1007300000100240002002400000FFF8FFFFF6FE1C
:1007400008ED00E000127A000000002000093D00E2
:10075000704770477047754600F028F8AE460500B0
:100760006946534620F00700854618B020B5FFF7CC
:1007700031FFBDE820404FF000064FF000074FF07A
:1007800000084FF0000B21F00701AC46ACE8C009AF
:10079000ACE8C009ACE8C009ACE8C0098D467047B8
:1007A0000446AFF300802046FFF709FD004870477C
:1007B0003403002001491820ABBEFEE726000200EA
:1007C00070470000E407000800000020140000004B
:1007D0006C010008F80700081400002084090000DC
:1007E0008801000800A24A04000000000000000088
:0807F0000102030406070809D9
:0400000508000131BD
:00000001FF
